{
  "contractName": "SmartContract",
  "abi": [
    {
      "constant": true,
      "inputs": [],
      "name": "userCount",
      "outputs": [
        {
          "name": "",
          "type": "uint256"
        }
      ],
      "payable": false,
      "stateMutability": "view",
      "type": "function"
    },
    {
      "constant": true,
      "inputs": [
        {
          "name": "",
          "type": "uint256"
        }
      ],
      "name": "fileList",
      "outputs": [
        {
          "name": "user",
          "type": "string"
        },
        {
          "name": "filename",
          "type": "string"
        },
        {
          "name": "sharing",
          "type": "string"
        },
        {
          "name": "encrypted_keys",
          "type": "string"
        },
        {
          "name": "date",
          "type": "string"
        }
      ],
      "payable": false,
      "stateMutability": "view",
      "type": "function"
    },
    {
      "constant": true,
      "inputs": [],
      "name": "fileCount",
      "outputs": [
        {
          "name": "",
          "type": "uint256"
        }
      ],
      "payable": false,
      "stateMutability": "view",
      "type": "function"
    },
    {
      "constant": true,
      "inputs": [
        {
          "name": "",
          "type": "uint256"
        }
      ],
      "name": "usersList",
      "outputs": [
        {
          "name": "username",
          "type": "string"
        },
        {
          "name": "password",
          "type": "string"
        },
        {
          "name": "phone",
          "type": "string"
        },
        {
          "name": "email",
          "type": "string"
        },
        {
          "name": "user_address",
          "type": "string"
        }
      ],
      "payable": false,
      "stateMutability": "view",
      "type": "function"
    },
    {
      "anonymous": false,
      "inputs": [
        {
          "indexed": true,
          "name": "_fileId",
          "type": "uint256"
        }
      ],
      "name": "fileCreated",
      "type": "event"
    },
    {
      "anonymous": false,
      "inputs": [
        {
          "indexed": true,
          "name": "_userId",
          "type": "uint256"
        }
      ],
      "name": "userCreated",
      "type": "event"
    },
    {
      "constant": false,
      "inputs": [
        {
          "name": "usr",
          "type": "string"
        },
        {
          "name": "fname",
          "type": "string"
        },
        {
          "name": "share",
          "type": "string"
        },
        {
          "name": "ek",
          "type": "string"
        },
        {
          "name": "dd",
          "type": "string"
        }
      ],
      "name": "createFile",
      "outputs": [],
      "payable": false,
      "stateMutability": "nonpayable",
      "type": "function"
    },
    {
      "constant": true,
      "inputs": [],
      "name": "getFileCount",
      "outputs": [
        {
          "name": "",
          "type": "uint256"
        }
      ],
      "payable": false,
      "stateMutability": "view",
      "type": "function"
    },
    {
      "constant": true,
      "inputs": [
        {
          "name": "i",
          "type": "uint256"
        }
      ],
      "name": "getUser",
      "outputs": [
        {
          "name": "",
          "type": "string"
        }
      ],
      "payable": false,
      "stateMutability": "view",
      "type": "function"
    },
    {
      "constant": true,
      "inputs": [
        {
          "name": "i",
          "type": "uint256"
        }
      ],
      "name": "getFilename",
      "outputs": [
        {
          "name": "",
          "type": "string"
        }
      ],
      "payable": false,
      "stateMutability": "view",
      "type": "function"
    },
    {
      "constant": true,
      "inputs": [
        {
          "name": "i",
          "type": "uint256"
        }
      ],
      "name": "getSharing",
      "outputs": [
        {
          "name": "",
          "type": "string"
        }
      ],
      "payable": false,
      "stateMutability": "view",
      "type": "function"
    },
    {
      "constant": true,
      "inputs": [
        {
          "name": "i",
          "type": "uint256"
        }
      ],
      "name": "getKeys",
      "outputs": [
        {
          "name": "",
          "type": "string"
        }
      ],
      "payable": false,
      "stateMutability": "view",
      "type": "function"
    },
    {
      "constant": true,
      "inputs": [
        {
          "name": "i",
          "type": "uint256"
        }
      ],
      "name": "getDate",
      "outputs": [
        {
          "name": "",
          "type": "string"
        }
      ],
      "payable": false,
      "stateMutability": "view",
      "type": "function"
    },
    {
      "constant": false,
      "inputs": [
        {
          "name": "_username",
          "type": "string"
        },
        {
          "name": "_password",
          "type": "string"
        },
        {
          "name": "_phone",
          "type": "string"
        },
        {
          "name": "_email",
          "type": "string"
        },
        {
          "name": "_address",
          "type": "string"
        }
      ],
      "name": "createUser",
      "outputs": [],
      "payable": false,
      "stateMutability": "nonpayable",
      "type": "function"
    },
    {
      "constant": true,
      "inputs": [],
      "name": "getUserCount",
      "outputs": [
        {
          "name": "",
          "type": "uint256"
        }
      ],
      "payable": false,
      "stateMutability": "view",
      "type": "function"
    },
    {
      "constant": true,
      "inputs": [
        {
          "name": "i",
          "type": "uint256"
        }
      ],
      "name": "getUsername",
      "outputs": [
        {
          "name": "",
          "type": "string"
        }
      ],
      "payable": false,
      "stateMutability": "view",
      "type": "function"
    },
    {
      "constant": true,
      "inputs": [
        {
          "name": "i",
          "type": "uint256"
        }
      ],
      "name": "getPassword",
      "outputs": [
        {
          "name": "",
          "type": "string"
        }
      ],
      "payable": false,
      "stateMutability": "view",
      "type": "function"
    },
    {
      "constant": true,
      "inputs": [
        {
          "name": "i",
          "type": "uint256"
        }
      ],
      "name": "getAddress",
      "outputs": [
        {
          "name": "",
          "type": "string"
        }
      ],
      "payable": false,
      "stateMutability": "view",
      "type": "function"
    },
    {
      "constant": true,
      "inputs": [
        {
          "name": "i",
          "type": "uint256"
        }
      ],
      "name": "getEmail",
      "outputs": [
        {
          "name": "",
          "type": "string"
        }
      ],
      "payable": false,
      "stateMutability": "view",
      "type": "function"
    },
    {
      "constant": true,
      "inputs": [
        {
          "name": "i",
          "type": "uint256"
        }
      ],
      "name": "getPhone",
      "outputs": [
        {
          "name": "",
          "type": "string"
        }
      ],
      "payable": false,
      "stateMutability": "view",
      "type": "function"
    }
  ],
  "bytecode": "0x608060405260008055600060025534801561001957600080fd5b50613421806100296000396000f3fe6080604052600436106100f6576000357c01000000000000000000000000000000000000000000000000000000009004806307973ccf146100fb578063273ccaa2146101265780632b1b0af2146101675780632b57298b146101a45780632e7d44b5146101e1578063439535191461021e578063502aa3b51461024957806365c06f701461028a5780638d357fa3146102b3578063972fe8bc146102f0578063b0467deb1461032d578063b5cb15f71461036a578063b93f9b0a14610395578063bab50cc9146103d2578063bcc3fe36146103fd578063e901185e14610426578063f18d18cc14610463578063f38c6bb6146104a0575b600080fd5b34801561010757600080fd5b506101106104dd565b60405161011d91906132f6565b60405180910390f35b34801561013257600080fd5b5061014d600480360361014891908101906131ba565b6104e3565b60405161015e959493929190613280565b60405180910390f35b34801561017357600080fd5b5061018e600480360361018991908101906131ba565b610811565b60405161019b919061325e565b60405180910390f35b3480156101b057600080fd5b506101cb60048036036101c691908101906131ba565b610b73565b6040516101d8919061325e565b60405180910390f35b3480156101ed57600080fd5b50610208600480360361020391908101906131ba565b610ed5565b604051610215919061325e565b60405180910390f35b34801561022a57600080fd5b50610233611237565b60405161024091906132f6565b60405180910390f35b34801561025557600080fd5b50610270600480360361026b91908101906131ba565b61123d565b604051610281959493929190613280565b60405180910390f35b34801561029657600080fd5b506102b160048036036102ac91908101906130cb565b61156b565b005b3480156102bf57600080fd5b506102da60048036036102d591908101906131ba565b611684565b6040516102e7919061325e565b60405180910390f35b3480156102fc57600080fd5b50610317600480360361031291908101906131ba565b6119e6565b604051610324919061325e565b60405180910390f35b34801561033957600080fd5b50610354600480360361034f91908101906131ba565b611d48565b604051610361919061325e565b60405180910390f35b34801561037657600080fd5b5061037f6120aa565b60405161038c91906132f6565b60405180910390f35b3480156103a157600080fd5b506103bc60048036036103b791908101906131ba565b6120b4565b6040516103c9919061325e565b60405180910390f35b3480156103de57600080fd5b506103e7612416565b6040516103f491906132f6565b60405180910390f35b34801561040957600080fd5b50610424600480360361041f91908101906130cb565b61241f565b005b34801561043257600080fd5b5061044d600480360361044891908101906131ba565b612536565b60405161045a919061325e565b60405180910390f35b34801561046f57600080fd5b5061048a600480360361048591908101906131ba565b612898565b604051610497919061325e565b60405180910390f35b3480156104ac57600080fd5b506104c760048036036104c291908101906131ba565b612bfa565b6040516104d4919061325e565b60405180910390f35b60025481565b6001602052806000526040600020600091509050806000018054600181600116156101000203166002900480601f01602080910402602001604051908101604052809291908181526020018280546001816001161561010002031660029004801561058f5780601f106105645761010080835404028352916020019161058f565b820191906000526020600020905b81548152906001019060200180831161057257829003601f168201915b505050505090806001018054600181600116156101000203166002900480601f01602080910402602001604051908101604052809291908181526020018280546001816001161561010002031660029004801561062d5780601f106106025761010080835404028352916020019161062d565b820191906000526020600020905b81548152906001019060200180831161061057829003601f168201915b505050505090806002018054600181600116156101000203166002900480601f0160208091040260200160405190810160405280929190818152602001828054600181600116156101000203166002900480156106cb5780601f106106a0576101008083540402835291602001916106cb565b820191906000526020600020905b8154815290600101906020018083116106ae57829003601f168201915b505050505090806003018054600181600116156101000203166002900480601f0160208091040260200160405190810160405280929190818152602001828054600181600116156101000203166002900480156107695780601f1061073e57610100808354040283529160200191610769565b820191906000526020600020905b81548152906001019060200180831161074c57829003601f168201915b505050505090806004018054600181600116156101000203166002900480601f0160208091040260200160405190810160405280929190818152602001828054600181600116156101000203166002900480156108075780601f106107dc57610100808354040283529160200191610807565b820191906000526020600020905b8154815290600101906020018083116107ea57829003601f168201915b5050505050905085565b606061081b612f5c565b6001600084815260200190815260200160002060a06040519081016040529081600082018054600181600116156101000203166002900480601f0160208091040260200160405190810160405280929190818152602001828054600181600116156101000203166002900480156108d35780601f106108a8576101008083540402835291602001916108d3565b820191906000526020600020905b8154815290600101906020018083116108b657829003601f168201915b50505050508152602001600182018054600181600116156101000203166002900480601f0160208091040260200160405190810160405280929190818152602001828054600181600116156101000203166002900480156109755780601f1061094a57610100808354040283529160200191610975565b820191906000526020600020905b81548152906001019060200180831161095857829003601f168201915b50505050508152602001600282018054600181600116156101000203166002900480601f016020809104026020016040519081016040528092919081815260200182805460018160011615610100020316600290048015610a175780601f106109ec57610100808354040283529160200191610a17565b820191906000526020600020905b8154815290600101906020018083116109fa57829003601f168201915b50505050508152602001600382018054600181600116156101000203166002900480601f016020809104026020016040519081016040528092919081815260200182805460018160011615610100020316600290048015610ab95780601f10610a8e57610100808354040283529160200191610ab9565b820191906000526020600020905b815481529060010190602001808311610a9c57829003601f168201915b50505050508152602001600482018054600181600116156101000203166002900480601f016020809104026020016040519081016040528092919081815260200182805460018160011615610100020316600290048015610b5b5780601f10610b3057610100808354040283529160200191610b5b565b820191906000526020600020905b815481529060010190602001808311610b3e57829003601f168201915b50505050508152505090508060400151915050919050565b6060610b7d612f5c565b6001600084815260200190815260200160002060a06040519081016040529081600082018054600181600116156101000203166002900480601f016020809104026020016040519081016040528092919081815260200182805460018160011615610100020316600290048015610c355780601f10610c0a57610100808354040283529160200191610c35565b820191906000526020600020905b815481529060010190602001808311610c1857829003601f168201915b50505050508152602001600182018054600181600116156101000203166002900480601f016020809104026020016040519081016040528092919081815260200182805460018160011615610100020316600290048015610cd75780601f10610cac57610100808354040283529160200191610cd7565b820191906000526020600020905b815481529060010190602001808311610cba57829003601f168201915b50505050508152602001600282018054600181600116156101000203166002900480601f016020809104026020016040519081016040528092919081815260200182805460018160011615610100020316600290048015610d795780601f10610d4e57610100808354040283529160200191610d79565b820191906000526020600020905b815481529060010190602001808311610d5c57829003601f168201915b50505050508152602001600382018054600181600116156101000203166002900480601f016020809104026020016040519081016040528092919081815260200182805460018160011615610100020316600290048015610e1b5780601f10610df057610100808354040283529160200191610e1b565b820191906000526020600020905b815481529060010190602001808311610dfe57829003601f168201915b50505050508152602001600482018054600181600116156101000203166002900480601f016020809104026020016040519081016040528092919081815260200182805460018160011615610100020316600290048015610ebd5780601f10610e9257610100808354040283529160200191610ebd565b820191906000526020600020905b815481529060010190602001808311610ea057829003601f168201915b50505050508152505090508060800151915050919050565b6060610edf612f8c565b6003600084815260200190815260200160002060a06040519081016040529081600082018054600181600116156101000203166002900480601f016020809104026020016040519081016040528092919081815260200182805460018160011615610100020316600290048015610f975780601f10610f6c57610100808354040283529160200191610f97565b820191906000526020600020905b815481529060010190602001808311610f7a57829003601f168201915b50505050508152602001600182018054600181600116156101000203166002900480601f0160208091040260200160405190810160405280929190818152602001828054600181600116156101000203166002900480156110395780601f1061100e57610100808354040283529160200191611039565b820191906000526020600020905b81548152906001019060200180831161101c57829003601f168201915b50505050508152602001600282018054600181600116156101000203166002900480601f0160208091040260200160405190810160405280929190818152602001828054600181600116156101000203166002900480156110db5780601f106110b0576101008083540402835291602001916110db565b820191906000526020600020905b8154815290600101906020018083116110be57829003601f168201915b50505050508152602001600382018054600181600116156101000203166002900480601f01602080910402602001604051908101604052809291908181526020018280546001816001161561010002031660029004801561117d5780601f106111525761010080835404028352916020019161117d565b820191906000526020600020905b81548152906001019060200180831161116057829003601f168201915b50505050508152602001600482018054600181600116156101000203166002900480601f01602080910402602001604051908101604052809291908181526020018280546001816001161561010002031660029004801561121f5780601f106111f45761010080835404028352916020019161121f565b820191906000526020600020905b81548152906001019060200180831161120257829003601f168201915b50505050508152505090508060400151915050919050565b60005481565b6003602052806000526040600020600091509050806000018054600181600116156101000203166002900480601f0160208091040260200160405190810160405280929190818152602001828054600181600116156101000203166002900480156112e95780601f106112be576101008083540402835291602001916112e9565b820191906000526020600020905b8154815290600101906020018083116112cc57829003601f168201915b505050505090806001018054600181600116156101000203166002900480601f0160208091040260200160405190810160405280929190818152602001828054600181600116156101000203166002900480156113875780601f1061135c57610100808354040283529160200191611387565b820191906000526020600020905b81548152906001019060200180831161136a57829003601f168201915b505050505090806002018054600181600116156101000203166002900480601f0160208091040260200160405190810160405280929190818152602001828054600181600116156101000203166002900480156114255780601f106113fa57610100808354040283529160200191611425565b820191906000526020600020905b81548152906001019060200180831161140857829003601f168201915b505050505090806003018054600181600116156101000203166002900480601f0160208091040260200160405190810160405280929190818152602001828054600181600116156101000203166002900480156114c35780601f10611498576101008083540402835291602001916114c3565b820191906000526020600020905b8154815290600101906020018083116114a657829003601f168201915b505050505090806004018054600181600116156101000203166002900480601f0160208091040260200160405190810160405280929190818152602001828054600181600116156101000203166002900480156115615780601f1061153657610100808354040283529160200191611561565b820191906000526020600020905b81548152906001019060200180831161154457829003601f168201915b5050505050905085565b60a0604051908101604052808681526020018581526020018481526020018381526020018281525060036000600254815260200190815260200160002060008201518160000190805190602001906115c4929190612fbc565b5060208201518160010190805190602001906115e1929190612fbc565b5060408201518160020190805190602001906115fe929190612fbc565b50606082015181600301908051906020019061161b929190612fbc565b506080820151816004019080519060200190611638929190612fbc565b509050506002547f1ed675bb725b3a8b0434b9ee956fe05e4c0e79f9dc67c3f1a717a5bb1fd88fd360405160405180910390a26002600081548092919060010191905055505050505050565b606061168e612f5c565b6001600084815260200190815260200160002060a06040519081016040529081600082018054600181600116156101000203166002900480601f0160208091040260200160405190810160405280929190818152602001828054600181600116156101000203166002900480156117465780601f1061171b57610100808354040283529160200191611746565b820191906000526020600020905b81548152906001019060200180831161172957829003601f168201915b50505050508152602001600182018054600181600116156101000203166002900480601f0160208091040260200160405190810160405280929190818152602001828054600181600116156101000203166002900480156117e85780601f106117bd576101008083540402835291602001916117e8565b820191906000526020600020905b8154815290600101906020018083116117cb57829003601f168201915b50505050508152602001600282018054600181600116156101000203166002900480601f01602080910402602001604051908101604052809291908181526020018280546001816001161561010002031660029004801561188a5780601f1061185f5761010080835404028352916020019161188a565b820191906000526020600020905b81548152906001019060200180831161186d57829003601f168201915b50505050508152602001600382018054600181600116156101000203166002900480601f01602080910402602001604051908101604052809291908181526020018280546001816001161561010002031660029004801561192c5780601f106119015761010080835404028352916020019161192c565b820191906000526020600020905b81548152906001019060200180831161190f57829003601f168201915b50505050508152602001600482018054600181600116156101000203166002900480601f0160208091040260200160405190810160405280929190818152602001828054600181600116156101000203166002900480156119ce5780601f106119a3576101008083540402835291602001916119ce565b820191906000526020600020905b8154815290600101906020018083116119b157829003601f168201915b50505050508152505090508060600151915050919050565b60606119f0612f8c565b6003600084815260200190815260200160002060a06040519081016040529081600082018054600181600116156101000203166002900480601f016020809104026020016040519081016040528092919081815260200182805460018160011615610100020316600290048015611aa85780601f10611a7d57610100808354040283529160200191611aa8565b820191906000526020600020905b815481529060010190602001808311611a8b57829003601f168201915b50505050508152602001600182018054600181600116156101000203166002900480601f016020809104026020016040519081016040528092919081815260200182805460018160011615610100020316600290048015611b4a5780601f10611b1f57610100808354040283529160200191611b4a565b820191906000526020600020905b815481529060010190602001808311611b2d57829003601f168201915b50505050508152602001600282018054600181600116156101000203166002900480601f016020809104026020016040519081016040528092919081815260200182805460018160011615610100020316600290048015611bec5780601f10611bc157610100808354040283529160200191611bec565b820191906000526020600020905b815481529060010190602001808311611bcf57829003601f168201915b50505050508152602001600382018054600181600116156101000203166002900480601f016020809104026020016040519081016040528092919081815260200182805460018160011615610100020316600290048015611c8e5780601f10611c6357610100808354040283529160200191611c8e565b820191906000526020600020905b815481529060010190602001808311611c7157829003601f168201915b50505050508152602001600482018054600181600116156101000203166002900480601f016020809104026020016040519081016040528092919081815260200182805460018160011615610100020316600290048015611d305780601f10611d0557610100808354040283529160200191611d30565b820191906000526020600020905b815481529060010190602001808311611d1357829003601f168201915b50505050508152505090508060600151915050919050565b6060611d52612f5c565b6001600084815260200190815260200160002060a06040519081016040529081600082018054600181600116156101000203166002900480601f016020809104026020016040519081016040528092919081815260200182805460018160011615610100020316600290048015611e0a5780601f10611ddf57610100808354040283529160200191611e0a565b820191906000526020600020905b815481529060010190602001808311611ded57829003601f168201915b50505050508152602001600182018054600181600116156101000203166002900480601f016020809104026020016040519081016040528092919081815260200182805460018160011615610100020316600290048015611eac5780601f10611e8157610100808354040283529160200191611eac565b820191906000526020600020905b815481529060010190602001808311611e8f57829003601f168201915b50505050508152602001600282018054600181600116156101000203166002900480601f016020809104026020016040519081016040528092919081815260200182805460018160011615610100020316600290048015611f4e5780601f10611f2357610100808354040283529160200191611f4e565b820191906000526020600020905b815481529060010190602001808311611f3157829003601f168201915b50505050508152602001600382018054600181600116156101000203166002900480601f016020809104026020016040519081016040528092919081815260200182805460018160011615610100020316600290048015611ff05780601f10611fc557610100808354040283529160200191611ff0565b820191906000526020600020905b815481529060010190602001808311611fd357829003601f168201915b50505050508152602001600482018054600181600116156101000203166002900480601f0160208091040260200160405190810160405280929190818152602001828054600181600116156101000203166002900480156120925780601f1061206757610100808354040283529160200191612092565b820191906000526020600020905b81548152906001019060200180831161207557829003601f168201915b50505050508152505090508060000151915050919050565b6000600254905090565b60606120be612f8c565b6003600084815260200190815260200160002060a06040519081016040529081600082018054600181600116156101000203166002900480601f0160208091040260200160405190810160405280929190818152602001828054600181600116156101000203166002900480156121765780601f1061214b57610100808354040283529160200191612176565b820191906000526020600020905b81548152906001019060200180831161215957829003601f168201915b50505050508152602001600182018054600181600116156101000203166002900480601f0160208091040260200160405190810160405280929190818152602001828054600181600116156101000203166002900480156122185780601f106121ed57610100808354040283529160200191612218565b820191906000526020600020905b8154815290600101906020018083116121fb57829003601f168201915b50505050508152602001600282018054600181600116156101000203166002900480601f0160208091040260200160405190810160405280929190818152602001828054600181600116156101000203166002900480156122ba5780601f1061228f576101008083540402835291602001916122ba565b820191906000526020600020905b81548152906001019060200180831161229d57829003601f168201915b50505050508152602001600382018054600181600116156101000203166002900480601f01602080910402602001604051908101604052809291908181526020018280546001816001161561010002031660029004801561235c5780601f106123315761010080835404028352916020019161235c565b820191906000526020600020905b81548152906001019060200180831161233f57829003601f168201915b50505050508152602001600482018054600181600116156101000203166002900480601f0160208091040260200160405190810160405280929190818152602001828054600181600116156101000203166002900480156123fe5780601f106123d3576101008083540402835291602001916123fe565b820191906000526020600020905b8154815290600101906020018083116123e157829003601f168201915b50505050508152505090508060800151915050919050565b60008054905090565b60a0604051908101604052808681526020018581526020018481526020018381526020018281525060016000805481526020019081526020016000206000820151816000019080519060200190612477929190612fbc565b506020820151816001019080519060200190612494929190612fbc565b5060408201518160020190805190602001906124b1929190612fbc565b5060608201518160030190805190602001906124ce929190612fbc565b5060808201518160040190805190602001906124eb929190612fbc565b509050506000547fb88f5170057a832315389bacb6a471640c1145c7948cf1945e4b99fbc47c9d8160405160405180910390a260008081548092919060010191905055505050505050565b6060612540612f5c565b6001600084815260200190815260200160002060a06040519081016040529081600082018054600181600116156101000203166002900480601f0160208091040260200160405190810160405280929190818152602001828054600181600116156101000203166002900480156125f85780601f106125cd576101008083540402835291602001916125f8565b820191906000526020600020905b8154815290600101906020018083116125db57829003601f168201915b50505050508152602001600182018054600181600116156101000203166002900480601f01602080910402602001604051908101604052809291908181526020018280546001816001161561010002031660029004801561269a5780601f1061266f5761010080835404028352916020019161269a565b820191906000526020600020905b81548152906001019060200180831161267d57829003601f168201915b50505050508152602001600282018054600181600116156101000203166002900480601f01602080910402602001604051908101604052809291908181526020018280546001816001161561010002031660029004801561273c5780601f106127115761010080835404028352916020019161273c565b820191906000526020600020905b81548152906001019060200180831161271f57829003601f168201915b50505050508152602001600382018054600181600116156101000203166002900480601f0160208091040260200160405190810160405280929190818152602001828054600181600116156101000203166002900480156127de5780601f106127b3576101008083540402835291602001916127de565b820191906000526020600020905b8154815290600101906020018083116127c157829003601f168201915b50505050508152602001600482018054600181600116156101000203166002900480601f0160208091040260200160405190810160405280929190818152602001828054600181600116156101000203166002900480156128805780601f1061285557610100808354040283529160200191612880565b820191906000526020600020905b81548152906001019060200180831161286357829003601f168201915b50505050508152505090508060200151915050919050565b60606128a2612f8c565b6003600084815260200190815260200160002060a06040519081016040529081600082018054600181600116156101000203166002900480601f01602080910402602001604051908101604052809291908181526020018280546001816001161561010002031660029004801561295a5780601f1061292f5761010080835404028352916020019161295a565b820191906000526020600020905b81548152906001019060200180831161293d57829003601f168201915b50505050508152602001600182018054600181600116156101000203166002900480601f0160208091040260200160405190810160405280929190818152602001828054600181600116156101000203166002900480156129fc5780601f106129d1576101008083540402835291602001916129fc565b820191906000526020600020905b8154815290600101906020018083116129df57829003601f168201915b50505050508152602001600282018054600181600116156101000203166002900480601f016020809104026020016040519081016040528092919081815260200182805460018160011615610100020316600290048015612a9e5780601f10612a7357610100808354040283529160200191612a9e565b820191906000526020600020905b815481529060010190602001808311612a8157829003601f168201915b50505050508152602001600382018054600181600116156101000203166002900480601f016020809104026020016040519081016040528092919081815260200182805460018160011615610100020316600290048015612b405780601f10612b1557610100808354040283529160200191612b40565b820191906000526020600020905b815481529060010190602001808311612b2357829003601f168201915b50505050508152602001600482018054600181600116156101000203166002900480601f016020809104026020016040519081016040528092919081815260200182805460018160011615610100020316600290048015612be25780601f10612bb757610100808354040283529160200191612be2565b820191906000526020600020905b815481529060010190602001808311612bc557829003601f168201915b50505050508152505090508060000151915050919050565b6060612c04612f8c565b6003600084815260200190815260200160002060a06040519081016040529081600082018054600181600116156101000203166002900480601f016020809104026020016040519081016040528092919081815260200182805460018160011615610100020316600290048015612cbc5780601f10612c9157610100808354040283529160200191612cbc565b820191906000526020600020905b815481529060010190602001808311612c9f57829003601f168201915b50505050508152602001600182018054600181600116156101000203166002900480601f016020809104026020016040519081016040528092919081815260200182805460018160011615610100020316600290048015612d5e5780601f10612d3357610100808354040283529160200191612d5e565b820191906000526020600020905b815481529060010190602001808311612d4157829003601f168201915b50505050508152602001600282018054600181600116156101000203166002900480601f016020809104026020016040519081016040528092919081815260200182805460018160011615610100020316600290048015612e005780601f10612dd557610100808354040283529160200191612e00565b820191906000526020600020905b815481529060010190602001808311612de357829003601f168201915b50505050508152602001600382018054600181600116156101000203166002900480601f016020809104026020016040519081016040528092919081815260200182805460018160011615610100020316600290048015612ea25780601f10612e7757610100808354040283529160200191612ea2565b820191906000526020600020905b815481529060010190602001808311612e8557829003601f168201915b50505050508152602001600482018054600181600116156101000203166002900480601f016020809104026020016040519081016040528092919081815260200182805460018160011615610100020316600290048015612f445780601f10612f1957610100808354040283529160200191612f44565b820191906000526020600020905b815481529060010190602001808311612f2757829003601f168201915b50505050508152505090508060200151915050919050565b60a06040519081016040528060608152602001606081526020016060815260200160608152602001606081525090565b60a06040519081016040528060608152602001606081526020016060815260200160608152602001606081525090565b828054600181600116156101000203166002900490600052602060002090601f016020900481019282601f10612ffd57805160ff191683800117855561302b565b8280016001018555821561302b579182015b8281111561302a57825182559160200191906001019061300f565b5b509050613038919061303c565b5090565b61305e91905b8082111561305a576000816000905550600101613042565b5090565b90565b600082601f830112151561307457600080fd5b81356130876130828261333e565b613311565b915080825260208301602083018583830111156130a357600080fd5b6130ae838284613394565b50505092915050565b60006130c3823561338a565b905092915050565b600080600080600060a086880312156130e357600080fd5b600086013567ffffffffffffffff8111156130fd57600080fd5b61310988828901613061565b955050602086013567ffffffffffffffff81111561312657600080fd5b61313288828901613061565b945050604086013567ffffffffffffffff81111561314f57600080fd5b61315b88828901613061565b935050606086013567ffffffffffffffff81111561317857600080fd5b61318488828901613061565b925050608086013567ffffffffffffffff8111156131a157600080fd5b6131ad88828901613061565b9150509295509295909350565b6000602082840312156131cc57600080fd5b60006131da848285016130b7565b91505092915050565b60006131ee82613375565b8084526132028160208601602086016133a3565b61320b816133d6565b602085010191505092915050565b60006132248261336a565b8084526132388160208601602086016133a3565b613241816133d6565b602085010191505092915050565b61325881613380565b82525050565b6000602082019050818103600083015261327881846131e3565b905092915050565b600060a082019050818103600083015261329a8188613219565b905081810360208301526132ae8187613219565b905081810360408301526132c28186613219565b905081810360608301526132d68185613219565b905081810360808301526132ea8184613219565b90509695505050505050565b600060208201905061330b600083018461324f565b92915050565b6000604051905081810181811067ffffffffffffffff8211171561333457600080fd5b8060405250919050565b600067ffffffffffffffff82111561335557600080fd5b601f19601f8301169050602081019050919050565b600081519050919050565b600081519050919050565b6000819050919050565b6000819050919050565b82818337600083830152505050565b60005b838110156133c15780820151818401526020810190506133a6565b838111156133d0576000848401525b50505050565b6000601f19601f830116905091905056fea265627a7a723058209b3b3eaaa31b76a2d35c71c67249d445da258c928dce56e978507bf055dd037a6c6578706572696d656e74616cf50037",
  "source": "pragma solidity >= 0.4.0 <= 0.9;\r\n\r\npragma experimental ABIEncoderV2;\r\n//SmartContract solidity code\r\ncontract SmartContract {\r\n\r\n    uint public fileCount = 0; \r\n    mapping(uint => file) public fileList; \r\n     struct file\r\n     {\r\n       string user;\r\n       string filename;\r\n       string sharing;\r\n       string encrypted_keys;\r\n       string date;       \r\n     }\r\n \r\n   // events \r\n   event fileCreated(uint indexed _fileId);\r\n\r\n  \r\n   //function  to save product details\r\n   function createFile(string memory usr, string memory fname, string memory share, string memory ek, string memory dd) public {\r\n      fileList[fileCount] = file(usr, fname, share, ek, dd);\r\n      emit fileCreated(fileCount);\r\n      fileCount++;\r\n    }\r\n\r\n     //get file count\r\n    function getFileCount()  public view returns (uint) {\r\n          return  fileCount;\r\n    }\r\n\r\n    function getUser(uint i) public view returns (string memory) {\r\n        file memory chq = fileList[i];\r\n\treturn chq.user;\r\n    }\r\n\r\n    function getFilename(uint i) public view returns (string memory) {\r\n        file memory chq = fileList[i];\r\n\treturn chq.filename;\r\n    }\r\n\r\n    function getSharing(uint i) public view returns (string memory) {\r\n        file memory chq = fileList[i];\r\n\treturn chq.sharing;\r\n    }\r\n\r\n    function getKeys(uint i) public view returns (string memory) {\r\n        file memory chq = fileList[i];\r\n\treturn chq.encrypted_keys;\r\n    }\r\n\r\n    function getDate(uint i) public view returns (string memory) {\r\n        file memory chq = fileList[i];\r\n\treturn chq.date;\r\n    }\r\n\r\n         \r\n       \r\n    uint public userCount = 0; \r\n    mapping(uint => user) public usersList; \r\n     struct user\r\n     {\r\n       string username;\r\n       string password;\r\n       string phone;\r\n       string email;\r\n       string user_address;\r\n     }\r\n \r\n   // events\r\n \r\n   event userCreated(uint indexed _userId);\r\n \r\n  function createUser(string memory _username, string memory _password, string memory _phone, string memory _email, string memory _address) public {\r\n      usersList[userCount] = user(_username, _password, _phone, _email, _address);\r\n      emit userCreated(userCount);\r\n      userCount++;\r\n    }\r\n\r\n    \r\n     //get user count\r\n    function getUserCount()  public view returns (uint) {\r\n          return  userCount;\r\n    }\r\n\r\n    function getUsername(uint i) public view returns (string memory) {\r\n        user memory usr = usersList[i];\r\n\treturn usr.username;\r\n    }\r\n\r\n    function getPassword(uint i) public view returns (string memory) {\r\n        user memory usr = usersList[i];\r\n\treturn usr.password;\r\n    }\r\n\r\n    function getAddress(uint i) public view returns (string memory) {\r\n        user memory usr = usersList[i];\r\n\treturn usr.user_address;\r\n    }\r\n\r\n    function getEmail(uint i) public view returns (string memory) {\r\n        user memory usr = usersList[i];\r\n\treturn usr.email;\r\n    }\r\n\r\n    function getPhone(uint i) public view returns (string memory) {\r\n        user memory usr = usersList[i];\r\n\treturn usr.phone;\r\n    }\r\n}",
  "sourcePath": "C:\\Users\\Srinivaas malayapa\\OneDrive\\Desktop\\Dynamic AES Encryption and Blockchain Key Management A Novel Solution for Cloud Data Security\\contracts\\SmartContract.sol",
  "compiler": {
    "name": "solc",
    "version": "0.5.1+commit.c8a2cb62.Emscripten.clang"
  },
  "schemaVersion": "3.4.16",
  "updatedAt": "2025-01-31T07:58:57.494Z",
  "networkType": "ethereum",
  "devdoc": {
    "methods": {}
  },
  "userdoc": {
    "methods": {}
  }
}