{
  "contractName": "SmartContract",
  "abi": [
    {
      "anonymous": false,
      "inputs": [
        {
          "indexed": true,
          "internalType": "uint256",
          "name": "_fileId",
          "type": "uint256"
        }
      ],
      "name": "fileCreated",
      "type": "event"
    },
    {
      "anonymous": false,
      "inputs": [
        {
          "indexed": true,
          "internalType": "uint256",
          "name": "_userId",
          "type": "uint256"
        }
      ],
      "name": "userCreated",
      "type": "event"
    },
    {
      "inputs": [],
      "name": "fileCount",
      "outputs": [
        {
          "internalType": "uint256",
          "name": "",
          "type": "uint256"
        }
      ],
      "stateMutability": "view",
      "type": "function",
      "constant": true
    },
    {
      "inputs": [
        {
          "internalType": "uint256",
          "name": "",
          "type": "uint256"
        }
      ],
      "name": "fileList",
      "outputs": [
        {
          "internalType": "string",
          "name": "user",
          "type": "string"
        },
        {
          "internalType": "string",
          "name": "filename",
          "type": "string"
        },
        {
          "internalType": "string",
          "name": "sharing",
          "type": "string"
        },
        {
          "internalType": "string",
          "name": "encrypted_keys",
          "type": "string"
        },
        {
          "internalType": "string",
          "name": "date",
          "type": "string"
        }
      ],
      "stateMutability": "view",
      "type": "function",
      "constant": true
    },
    {
      "inputs": [],
      "name": "userCount",
      "outputs": [
        {
          "internalType": "uint256",
          "name": "",
          "type": "uint256"
        }
      ],
      "stateMutability": "view",
      "type": "function",
      "constant": true
    },
    {
      "inputs": [
        {
          "internalType": "uint256",
          "name": "",
          "type": "uint256"
        }
      ],
      "name": "usersList",
      "outputs": [
        {
          "internalType": "string",
          "name": "username",
          "type": "string"
        },
        {
          "internalType": "string",
          "name": "password",
          "type": "string"
        },
        {
          "internalType": "string",
          "name": "phone",
          "type": "string"
        },
        {
          "internalType": "string",
          "name": "email",
          "type": "string"
        },
        {
          "internalType": "string",
          "name": "user_address",
          "type": "string"
        }
      ],
      "stateMutability": "view",
      "type": "function",
      "constant": true
    },
    {
      "inputs": [
        {
          "internalType": "string",
          "name": "usr",
          "type": "string"
        },
        {
          "internalType": "string",
          "name": "fname",
          "type": "string"
        },
        {
          "internalType": "string",
          "name": "share",
          "type": "string"
        },
        {
          "internalType": "string",
          "name": "ek",
          "type": "string"
        },
        {
          "internalType": "string",
          "name": "dd",
          "type": "string"
        }
      ],
      "name": "createFile",
      "outputs": [],
      "stateMutability": "nonpayable",
      "type": "function"
    },
    {
      "inputs": [],
      "name": "getFileCount",
      "outputs": [
        {
          "internalType": "uint256",
          "name": "",
          "type": "uint256"
        }
      ],
      "stateMutability": "view",
      "type": "function",
      "constant": true
    },
    {
      "inputs": [
        {
          "internalType": "uint256",
          "name": "i",
          "type": "uint256"
        }
      ],
      "name": "getUser",
      "outputs": [
        {
          "internalType": "string",
          "name": "",
          "type": "string"
        }
      ],
      "stateMutability": "view",
      "type": "function",
      "constant": true
    },
    {
      "inputs": [
        {
          "internalType": "uint256",
          "name": "i",
          "type": "uint256"
        }
      ],
      "name": "getFilename",
      "outputs": [
        {
          "internalType": "string",
          "name": "",
          "type": "string"
        }
      ],
      "stateMutability": "view",
      "type": "function",
      "constant": true
    },
    {
      "inputs": [
        {
          "internalType": "uint256",
          "name": "i",
          "type": "uint256"
        }
      ],
      "name": "getSharing",
      "outputs": [
        {
          "internalType": "string",
          "name": "",
          "type": "string"
        }
      ],
      "stateMutability": "view",
      "type": "function",
      "constant": true
    },
    {
      "inputs": [
        {
          "internalType": "uint256",
          "name": "i",
          "type": "uint256"
        }
      ],
      "name": "getKeys",
      "outputs": [
        {
          "internalType": "string",
          "name": "",
          "type": "string"
        }
      ],
      "stateMutability": "view",
      "type": "function",
      "constant": true
    },
    {
      "inputs": [
        {
          "internalType": "uint256",
          "name": "i",
          "type": "uint256"
        }
      ],
      "name": "getDate",
      "outputs": [
        {
          "internalType": "string",
          "name": "",
          "type": "string"
        }
      ],
      "stateMutability": "view",
      "type": "function",
      "constant": true
    },
    {
      "inputs": [
        {
          "internalType": "string",
          "name": "_username",
          "type": "string"
        },
        {
          "internalType": "string",
          "name": "_password",
          "type": "string"
        },
        {
          "internalType": "string",
          "name": "_phone",
          "type": "string"
        },
        {
          "internalType": "string",
          "name": "_email",
          "type": "string"
        },
        {
          "internalType": "string",
          "name": "_address",
          "type": "string"
        }
      ],
      "name": "createUser",
      "outputs": [],
      "stateMutability": "nonpayable",
      "type": "function"
    },
    {
      "inputs": [],
      "name": "getUserCount",
      "outputs": [
        {
          "internalType": "uint256",
          "name": "",
          "type": "uint256"
        }
      ],
      "stateMutability": "view",
      "type": "function",
      "constant": true
    },
    {
      "inputs": [
        {
          "internalType": "uint256",
          "name": "i",
          "type": "uint256"
        }
      ],
      "name": "getUsername",
      "outputs": [
        {
          "internalType": "string",
          "name": "",
          "type": "string"
        }
      ],
      "stateMutability": "view",
      "type": "function",
      "constant": true
    },
    {
      "inputs": [
        {
          "internalType": "uint256",
          "name": "i",
          "type": "uint256"
        }
      ],
      "name": "getPassword",
      "outputs": [
        {
          "internalType": "string",
          "name": "",
          "type": "string"
        }
      ],
      "stateMutability": "view",
      "type": "function",
      "constant": true
    },
    {
      "inputs": [
        {
          "internalType": "uint256",
          "name": "i",
          "type": "uint256"
        }
      ],
      "name": "getAddress",
      "outputs": [
        {
          "internalType": "string",
          "name": "",
          "type": "string"
        }
      ],
      "stateMutability": "view",
      "type": "function",
      "constant": true
    },
    {
      "inputs": [
        {
          "internalType": "uint256",
          "name": "i",
          "type": "uint256"
        }
      ],
      "name": "getEmail",
      "outputs": [
        {
          "internalType": "string",
          "name": "",
          "type": "string"
        }
      ],
      "stateMutability": "view",
      "type": "function",
      "constant": true
    },
    {
      "inputs": [
        {
          "internalType": "uint256",
          "name": "i",
          "type": "uint256"
        }
      ],
      "name": "getPhone",
      "outputs": [
        {
          "internalType": "string",
          "name": "",
          "type": "string"
        }
      ],
      "stateMutability": "view",
      "type": "function",
      "constant": true
    }
  ],
  "bytecode": "0x608060405260008055600060025534801561001957600080fd5b50611b88806100296000396000f3fe608060405234801561001057600080fd5b5060043610610133576000357c010000000000000000000000000000000000000000000000000000000090048063972fe8bc116100bf578063bab50cc91161008e578063bab50cc914610243578063bcc3fe361461024b578063e901185e1461025e578063f18d18cc14610271578063f38c6bb61461028457600080fd5b8063972fe8bc14610202578063b0467deb14610215578063b5cb15f714610228578063b93f9b0a1461023057600080fd5b80632e7d44b5116101065780632e7d44b5146101ab57806343953519146101be578063502aa3b5146101c757806365c06f70146101da5780638d357fa3146101ef57600080fd5b806307973ccf14610138578063273ccaa2146101545780632b1b0af2146101785780632b57298b14610198575b600080fd5b61014160025481565b6040519081526020015b60405180910390f35b610167610162366004611841565b610297565b60405161014b9594939291906118a7565b61018b610186366004611841565b61056d565b60405161014b9190611914565b61018b6101a6366004611841565b610875565b61018b6101b9366004611841565b610b7d565b61014160005481565b6101676101d5366004611841565b610baf565b6101ed6101e83660046119ea565b610bca565b005b61018b6101fd366004611841565b610cd2565b61018b610210366004611841565b610fda565b61018b610223366004611841565b61100c565b600254610141565b61018b61023e366004611841565b611312565b600054610141565b6101ed6102593660046119ea565b611344565b61018b61026c366004611841565b61143c565b61018b61027f366004611841565b611744565b61018b610292366004611841565b611776565b6001602052600090815260409020805481906102b290611abc565b80601f01602080910402602001604051908101604052809291908181526020018280546102de90611abc565b801561032b5780601f106103005761010080835404028352916020019161032b565b820191906000526020600020905b81548152906001019060200180831161030e57829003601f168201915b50505050509080600101805461034090611abc565b80601f016020809104026020016040519081016040528092919081815260200182805461036c90611abc565b80156103b95780601f1061038e576101008083540402835291602001916103b9565b820191906000526020600020905b81548152906001019060200180831161039c57829003601f168201915b5050505050908060020180546103ce90611abc565b80601f01602080910402602001604051908101604052809291908181526020018280546103fa90611abc565b80156104475780601f1061041c57610100808354040283529160200191610447565b820191906000526020600020905b81548152906001019060200180831161042a57829003601f168201915b50505050509080600301805461045c90611abc565b80601f016020809104026020016040519081016040528092919081815260200182805461048890611abc565b80156104d55780601f106104aa576101008083540402835291602001916104d5565b820191906000526020600020905b8154815290600101906020018083116104b857829003601f168201915b5050505050908060040180546104ea90611abc565b80601f016020809104026020016040519081016040528092919081815260200182805461051690611abc565b80156105635780601f1061053857610100808354040283529160200191610563565b820191906000526020600020905b81548152906001019060200180831161054657829003601f168201915b5050505050905085565b60606000600160008481526020019081526020016000206040518060a001604052908160008201805461059f90611abc565b80601f01602080910402602001604051908101604052809291908181526020018280546105cb90611abc565b80156106185780601f106105ed57610100808354040283529160200191610618565b820191906000526020600020905b8154815290600101906020018083116105fb57829003601f168201915b5050505050815260200160018201805461063190611abc565b80601f016020809104026020016040519081016040528092919081815260200182805461065d90611abc565b80156106aa5780601f1061067f576101008083540402835291602001916106aa565b820191906000526020600020905b81548152906001019060200180831161068d57829003601f168201915b505050505081526020016002820180546106c390611abc565b80601f01602080910402602001604051908101604052809291908181526020018280546106ef90611abc565b801561073c5780601f106107115761010080835404028352916020019161073c565b820191906000526020600020905b81548152906001019060200180831161071f57829003601f168201915b5050505050815260200160038201805461075590611abc565b80601f016020809104026020016040519081016040528092919081815260200182805461078190611abc565b80156107ce5780601f106107a3576101008083540402835291602001916107ce565b820191906000526020600020905b8154815290600101906020018083116107b157829003601f168201915b505050505081526020016004820180546107e790611abc565b80601f016020809104026020016040519081016040528092919081815260200182805461081390611abc565b80156108605780601f1061083557610100808354040283529160200191610860565b820191906000526020600020905b81548152906001019060200180831161084357829003601f168201915b50505091909252505050604001519392505050565b60606000600160008481526020019081526020016000206040518060a00160405290816000820180546108a790611abc565b80601f01602080910402602001604051908101604052809291908181526020018280546108d390611abc565b80156109205780601f106108f557610100808354040283529160200191610920565b820191906000526020600020905b81548152906001019060200180831161090357829003601f168201915b5050505050815260200160018201805461093990611abc565b80601f016020809104026020016040519081016040528092919081815260200182805461096590611abc565b80156109b25780601f10610987576101008083540402835291602001916109b2565b820191906000526020600020905b81548152906001019060200180831161099557829003601f168201915b505050505081526020016002820180546109cb90611abc565b80601f01602080910402602001604051908101604052809291908181526020018280546109f790611abc565b8015610a445780601f10610a1957610100808354040283529160200191610a44565b820191906000526020600020905b815481529060010190602001808311610a2757829003601f168201915b50505050508152602001600382018054610a5d90611abc565b80601f0160208091040260200160405190810160405280929190818152602001828054610a8990611abc565b8015610ad65780601f10610aab57610100808354040283529160200191610ad6565b820191906000526020600020905b815481529060010190602001808311610ab957829003601f168201915b50505050508152602001600482018054610aef90611abc565b80601f0160208091040260200160405190810160405280929190818152602001828054610b1b90611abc565b8015610b685780601f10610b3d57610100808354040283529160200191610b68565b820191906000526020600020905b815481529060010190602001808311610b4b57829003601f168201915b50505091909252505050608001519392505050565b60606000600360008481526020019081526020016000206040518060a001604052908160008201805461059f90611abc565b6003602052600090815260409020805481906102b290611abc565b6040805160a08101825286815260208082018790528183018690526060820185905260808201849052600254600090815260038252929092208151805192939192610c1892849201906117a8565b506020828101518051610c3192600185019201906117a8565b5060408201518051610c4d9160028401916020909101906117a8565b5060608201518051610c699160038401916020909101906117a8565b5060808201518051610c859160048401916020909101906117a8565b50506002546040519091507f1ed675bb725b3a8b0434b9ee956fe05e4c0e79f9dc67c3f1a717a5bb1fd88fd390600090a260028054906000610cc683611b10565b91905055505050505050565b60606000600160008481526020019081526020016000206040518060a0016040529081600082018054610d0490611abc565b80601f0160208091040260200160405190810160405280929190818152602001828054610d3090611abc565b8015610d7d5780601f10610d5257610100808354040283529160200191610d7d565b820191906000526020600020905b815481529060010190602001808311610d6057829003601f168201915b50505050508152602001600182018054610d9690611abc565b80601f0160208091040260200160405190810160405280929190818152602001828054610dc290611abc565b8015610e0f5780601f10610de457610100808354040283529160200191610e0f565b820191906000526020600020905b815481529060010190602001808311610df257829003601f168201915b50505050508152602001600282018054610e2890611abc565b80601f0160208091040260200160405190810160405280929190818152602001828054610e5490611abc565b8015610ea15780601f10610e7657610100808354040283529160200191610ea1565b820191906000526020600020905b815481529060010190602001808311610e8457829003601f168201915b50505050508152602001600382018054610eba90611abc565b80601f0160208091040260200160405190810160405280929190818152602001828054610ee690611abc565b8015610f335780601f10610f0857610100808354040283529160200191610f33565b820191906000526020600020905b815481529060010190602001808311610f1657829003601f168201915b50505050508152602001600482018054610f4c90611abc565b80601f0160208091040260200160405190810160405280929190818152602001828054610f7890611abc565b8015610fc55780601f10610f9a57610100808354040283529160200191610fc5565b820191906000526020600020905b815481529060010190602001808311610fa857829003601f168201915b50505091909252505050606001519392505050565b60606000600360008481526020019081526020016000206040518060a0016040529081600082018054610d0490611abc565b60606000600160008481526020019081526020016000206040518060a001604052908160008201805461103e90611abc565b80601f016020809104026020016040519081016040528092919081815260200182805461106a90611abc565b80156110b75780601f1061108c576101008083540402835291602001916110b7565b820191906000526020600020905b81548152906001019060200180831161109a57829003601f168201915b505050505081526020016001820180546110d090611abc565b80601f01602080910402602001604051908101604052809291908181526020018280546110fc90611abc565b80156111495780601f1061111e57610100808354040283529160200191611149565b820191906000526020600020905b81548152906001019060200180831161112c57829003601f168201915b5050505050815260200160028201805461116290611abc565b80601f016020809104026020016040519081016040528092919081815260200182805461118e90611abc565b80156111db5780601f106111b0576101008083540402835291602001916111db565b820191906000526020600020905b8154815290600101906020018083116111be57829003601f168201915b505050505081526020016003820180546111f490611abc565b80601f016020809104026020016040519081016040528092919081815260200182805461122090611abc565b801561126d5780601f106112425761010080835404028352916020019161126d565b820191906000526020600020905b81548152906001019060200180831161125057829003601f168201915b5050505050815260200160048201805461128690611abc565b80601f01602080910402602001604051908101604052809291908181526020018280546112b290611abc565b80156112ff5780601f106112d4576101008083540402835291602001916112ff565b820191906000526020600020905b8154815290600101906020018083116112e257829003601f168201915b5050509190925250509051949350505050565b60606000600360008481526020019081526020016000206040518060a00160405290816000820180546108a790611abc565b6040805160a081018252868152602080820187905281830186905260608201859052608082018490526000805481526001825292909220815180519293919261139092849201906117a8565b5060208281015180516113a992600185019201906117a8565b50604082015180516113c59160028401916020909101906117a8565b50606082015180516113e19160038401916020909101906117a8565b50608082015180516113fd9160048401916020909101906117a8565b5050600080546040519092507fb88f5170057a832315389bacb6a471640c1145c7948cf1945e4b99fbc47c9d819190a2600080549080610cc683611b10565b60606000600160008481526020019081526020016000206040518060a001604052908160008201805461146e90611abc565b80601f016020809104026020016040519081016040528092919081815260200182805461149a90611abc565b80156114e75780601f106114bc576101008083540402835291602001916114e7565b820191906000526020600020905b8154815290600101906020018083116114ca57829003601f168201915b5050505050815260200160018201805461150090611abc565b80601f016020809104026020016040519081016040528092919081815260200182805461152c90611abc565b80156115795780601f1061154e57610100808354040283529160200191611579565b820191906000526020600020905b81548152906001019060200180831161155c57829003601f168201915b5050505050815260200160028201805461159290611abc565b80601f01602080910402602001604051908101604052809291908181526020018280546115be90611abc565b801561160b5780601f106115e05761010080835404028352916020019161160b565b820191906000526020600020905b8154815290600101906020018083116115ee57829003601f168201915b5050505050815260200160038201805461162490611abc565b80601f016020809104026020016040519081016040528092919081815260200182805461165090611abc565b801561169d5780601f106116725761010080835404028352916020019161169d565b820191906000526020600020905b81548152906001019060200180831161168057829003601f168201915b505050505081526020016004820180546116b690611abc565b80601f01602080910402602001604051908101604052809291908181526020018280546116e290611abc565b801561172f5780601f106117045761010080835404028352916020019161172f565b820191906000526020600020905b81548152906001019060200180831161171257829003601f168201915b50505091909252505050602001519392505050565b60606000600360008481526020019081526020016000206040518060a001604052908160008201805461103e90611abc565b60606000600360008481526020019081526020016000206040518060a001604052908160008201805461146e90611abc565b8280546117b490611abc565b90600052602060002090601f0160209004810192826117d6576000855561181c565b82601f106117ef57805160ff191683800117855561181c565b8280016001018555821561181c579182015b8281111561181c578251825591602001919060010190611801565b5061182892915061182c565b5090565b5b80821115611828576000815560010161182d565b60006020828403121561185357600080fd5b5035919050565b6000815180845260005b8181101561188057602081850181015186830182015201611864565b81811115611892576000602083870101525b50601f01601f19169290920160200192915050565b60a0815260006118ba60a083018861185a565b82810360208401526118cc818861185a565b905082810360408401526118e0818761185a565b905082810360608401526118f4818661185a565b90508281036080840152611908818561185a565b98975050505050505050565b602081526000611927602083018461185a565b9392505050565b7f4e487b7100000000000000000000000000000000000000000000000000000000600052604160045260246000fd5b600082601f83011261196e57600080fd5b813567ffffffffffffffff808211156119895761198961192e565b604051601f8301601f19908116603f011681019082821181831017156119b1576119b161192e565b816040528381528660208588010111156119ca57600080fd5b836020870160208301376000602085830101528094505050505092915050565b600080600080600060a08688031215611a0257600080fd5b853567ffffffffffffffff80821115611a1a57600080fd5b611a2689838a0161195d565b96506020880135915080821115611a3c57600080fd5b611a4889838a0161195d565b95506040880135915080821115611a5e57600080fd5b611a6a89838a0161195d565b94506060880135915080821115611a8057600080fd5b611a8c89838a0161195d565b93506080880135915080821115611aa257600080fd5b50611aaf8882890161195d565b9150509295509295909350565b600281046001821680611ad057607f821691505b60208210811415611b0a577f4e487b7100000000000000000000000000000000000000000000000000000000600052602260045260246000fd5b50919050565b6000600019821415611b4b577f4e487b7100000000000000000000000000000000000000000000000000000000600052601160045260246000fd5b506001019056fea2646970667358221220bfc53722802c0324f799059274c169910ed65cbb16beaa3218e8138ce6b5e47964736f6c634300080b0033",
  "immutableReferences": {},
  "source": "pragma solidity >= 0.8.11 <= 0.8.11;\r\npragma experimental ABIEncoderV2;\r\n//SmartContract solidity code\r\ncontract SmartContract {\r\n\r\n    uint public fileCount = 0; \r\n    mapping(uint => file) public fileList; \r\n     struct file\r\n     {\r\n       string user;\r\n       string filename;\r\n       string sharing;\r\n       string encrypted_keys;\r\n       string date;       \r\n     }\r\n \r\n   // events \r\n   event fileCreated(uint indexed _fileId);\r\n\r\n  \r\n   //function  to save product details\r\n   function createFile(string memory usr, string memory fname, string memory share, string memory ek, string memory dd) public {\r\n      fileList[fileCount] = file(usr, fname, share, ek, dd);\r\n      emit fileCreated(fileCount);\r\n      fileCount++;\r\n    }\r\n\r\n     //get file count\r\n    function getFileCount()  public view returns (uint) {\r\n          return  fileCount;\r\n    }\r\n\r\n    function getUser(uint i) public view returns (string memory) {\r\n        file memory chq = fileList[i];\r\n\treturn chq.user;\r\n    }\r\n\r\n    function getFilename(uint i) public view returns (string memory) {\r\n        file memory chq = fileList[i];\r\n\treturn chq.filename;\r\n    }\r\n\r\n    function getSharing(uint i) public view returns (string memory) {\r\n        file memory chq = fileList[i];\r\n\treturn chq.sharing;\r\n    }\r\n\r\n    function getKeys(uint i) public view returns (string memory) {\r\n        file memory chq = fileList[i];\r\n\treturn chq.encrypted_keys;\r\n    }\r\n\r\n    function getDate(uint i) public view returns (string memory) {\r\n        file memory chq = fileList[i];\r\n\treturn chq.date;\r\n    }\r\n\r\n         \r\n       \r\n    uint public userCount = 0; \r\n    mapping(uint => user) public usersList; \r\n     struct user\r\n     {\r\n       string username;\r\n       string password;\r\n       string phone;\r\n       string email;\r\n       string user_address;\r\n     }\r\n \r\n   // events\r\n \r\n   event userCreated(uint indexed _userId);\r\n \r\n  function createUser(string memory _username, string memory _password, string memory _phone, string memory _email, string memory _address) public {\r\n      usersList[userCount] = user(_username, _password, _phone, _email, _address);\r\n      emit userCreated(userCount);\r\n      userCount++;\r\n    }\r\n\r\n    \r\n     //get user count\r\n    function getUserCount()  public view returns (uint) {\r\n          return  userCount;\r\n    }\r\n\r\n    function getUsername(uint i) public view returns (string memory) {\r\n        user memory usr = usersList[i];\r\n\treturn usr.username;\r\n    }\r\n\r\n    function getPassword(uint i) public view returns (string memory) {\r\n        user memory usr = usersList[i];\r\n\treturn usr.password;\r\n    }\r\n\r\n    function getAddress(uint i) public view returns (string memory) {\r\n        user memory usr = usersList[i];\r\n\treturn usr.user_address;\r\n    }\r\n\r\n    function getEmail(uint i) public view returns (string memory) {\r\n        user memory usr = usersList[i];\r\n\treturn usr.email;\r\n    }\r\n\r\n    function getPhone(uint i) public view returns (string memory) {\r\n        user memory usr = usersList[i];\r\n\treturn usr.phone;\r\n    }\r\n}",
  "sourcePath": "C:\\Users\\Admin\\Desktop\\Blockchain\\hello-eth\\node_modules\\.bin\\contracts\\SmartContract.sol",
  "compiler": {
    "name": "solc",
    "version": "0.8.11+commit.d7f03943.Emscripten.clang"
  },
  "schemaVersion": "3.4.4",
  "updatedAt": "2024-06-18T09:22:57.500Z",
  "networkType": "ethereum",
  "devdoc": {
    "kind": "dev",
    "methods": {},
    "version": 1
  },
  "userdoc": {
    "kind": "user",
    "methods": {},
    "version": 1
  }
}